:020000040000FA
:2000000008B5094B01221A60084B0022C360084B94211860074800F0DBF802F015FF064BB1
:200020004FF001121A6008BDD0930000B0890000C4930000C48700000800074000207047CB
:200040002DE9F04FDFF85891DFF85881D9F8003085B000240393C8F80040039B4E4613F0B6
:20006000010F454644D0454B4FF480321A60444ADFF828A11368434F43F08053136000F02E
:2000800073FDDFF80CB1C0B10123CAF80030039B3D4AC9F8003013684FF49E7043F01003AD
:2000A00013604FF00113C8F800303B68DBF800209B68D1785B6A984758E00146019002F002
:2000C000E9FE3A68B821926840F21F10526A9047019B2E4A4FF49E7013603B68DBF8002062
:2000E0009B68D1785B6A98470123CAF8003038E0039BDA033CD5234C40F24B1023689B68CC
:200100001B6A9847224A236812689B68527900F0C00111435B6A40F24B10984723684FF438
:200120009E709B6802215B6A98471A4B1B68DB0706D4236840F21F109B68B0215B6A9847DF
:200140000E4B002201211A60996013490B6843F480330B600C490B6823F010030B600F4BB8
:200160001A60039B33604FF001132B60002001E04FF0FF3005B0BDE8F08F00BFC0010840E6
:2001800028300840C4930000000100408C000440A8890000C4120840088108400C000740E4
:2001A000040007400800074003461A46117801330029FAD1101A704710B5431EC41D0A78E1
:2001C00003F8012F02B10131A342F8D110BD0000034630B514460D4685B019466846FFF781
:2001E000EBFF054B02951B6803949A68186892686946904705B030BDC4930000F0B53D4BEC
:200200001A68D20762D41B689B0762D43A4F3B6813F4704F60D13949394A0B68394E1B0EA7
:200220001377394B08681C68B36CC0F307409D8A364B25441B68696CED6DDBB2491BC31A12
:20024000B1FBF3F3A3F59C53083BB3F57A6F45D83B681B0F44D12E48036882F83C30F36E8A
:20026000998A2C4B0C441D68E16A636C0068C91AC0F30723C3EB1563B1FBF3F3A3F59C538E
:20028000083BB3F57A6F2DD8234B196811F4704F2AD12249096882F85C101B681B0F26D171
:2002A0001F49096882F87C10D0580F2400F580518C6040F201310160D15800208860D15833
:2002C00020330124802B4C60EED1F0BD41F21110F0BD42F22220F0BD0320F0BD0420F0BD1E
:2002E0003020F0BD4020F0BD4FF44070F0BD4FF44050F0BD149000A0009000A01C9000A014
:20030000288900002C8F0000D8930000209000A0289000A0249000A0049000A02C9000A07A
:20032000309000A001234360002200F580531B6813F00F0306D1B2F5007F01D00132F4E738
:2003400018467047B2F5007F1ABF006CC0B200207047000070B51B4D440129194A7F1A4B92
:200360000646242000FB02338A69DB689A4202D04FF0FF3070BD2859FFF7D4FF08B32B19F5
:200380001B69022E08BF00F1FF3013B1C31A062B16DC2B195A69B2F57A7FE9D259680132A8
:2003A000814288BF58605A612B1999682C44814238BF9860E3681844E060B0FBF2F0206164
:2003C000002070BD288900002C8F0000064B03EB40139A6859689B7F521A9A42DDBF83008E
:2003E00005209840002070472889000070B51F4901EB40110C7F4E7F14B98300062010E0F0
:200400001B4B1C4A1D6824237343D258938A56784A68121B07D5511C07D0023207D08300EC
:200420000720984070BD282402E03C2400E0782400F6283003F10C02191D800002EBC603CA
:20044000046029442B44083199420CD051F8085C41F66A02B5FBF4F0B0FBF2F002FB10529C
:2004600041F8082CEFE7002070BD00BF28890000D89300002C8F000070B5214C012804EBAC
:20048000401404F118014A7901D9002070BD1D4B09791D68242353431B4AD3589A8A5E783A
:2004A0006368591A002903DC83000820984070BD41F270734B4344F63E118B42A8BF0B4694
:2004C00041F66A0193FBF1F34B4300F62E3189000B60A91802EBC6022A449142D5D04C6821
:2004E0000A4DE41A4C600C68AC4201D128B9CCE7074DAC4201D10128C7D00831EDE700BF93
:2005000028890000D89300002C8F000058FC19004811100038B50023144A02EB43125269C3
:20052000F92A04D89B000E2404FA03F038BD0133042BF1D10020FFF749FF04460120FFF725
:2005400045FF044310D125462846FFF74FFF30B92846FFF791FF10B9AB000F209840013584
:20056000042D44EA0004EFD1204638BD2889000038B5364D364A2B68934221D1354C2368F6
:2005800043B12368012B5ED1334B4FF400221A6000250DE042F6B443304A1A600123236048
:2005A000FFF72CFE0028ECD026E00135042D19D02846FFF7CFFE0028F7D00223236019E020
:2005C000274A934210D0274A93420BD0912002F0D2FE00240120072102F05CFC2C6093206B
:2005E00002F0C9FE002038BD1A4B1A68012A2AD102221A60FFF78EFF002422461A490D7F84
:200600004B685B1B072B03DC13F1080F06DB00E00723002D08BF6FF0070301E06FF00703F3
:2006200003F00F03A3400434102C42EA030201F12001E4D142F6B04342EA004119600B4801
:200640000F22FFF7C5FD4FF0FF3038BD8C0004400000CDABC093000008000440EFBEADDE2F
:200660000100CDAB0200CDAB28890000CC870000013810F8012F11F8013BD31A13F0FF03DB
:2006800001D1002AF5D158B2704730B50C46451E131B0B44002B04DD14F8013B05F8013F2F
:2006A000F6E730BD10B50446131B0344002B02DD04F8011BF8E710BD074BDB6ADB0009D4CF
:2006C00049F62033054A1860136823F07F4343EA00601060704700BFC0890000AC090840B8
:2006E000124BDA6AD20020D4DB6A49F62C3113F4803F0F4A03D10F4B1B68012B09D10B6869
:20070000C0B223F0FF0303430B60136823F0FF0309E00B68000280B223F47F4303430B60F7
:20072000136823F47F43184310607047C0890000AC090840D0930000074BDB6ADB000AD4EA
:2007400049F62833054A18601368C0B223F47F0343EA004010607047C0890000AC090840D8
:200760002DE9F84F49F610331B68834603F51B43B3F52B4F0F4600DB30BF49F6C0339C6881
:2007800049F6E0339E6849F6F0339B68564D03F51B4A4FF41C439B68702203F51B4949F6CA
:2007A00010439B6804F51B4403F51B4849F6B033996805F1600001F51B4102FB0711FFF75A
:2007C00064FF04EB8711494C06F51B46402205F1D000FFF75AFF06EB4B1120224FEA471B9D
:2007E00004F1D800FFF751FF06EB0B01404E202204F1F800FFF749FF0AEB0B01202206F1B4
:200800003400FFF742FF49463C2206F1D400FFF73CFF08EB8701042206F58870FFF735FFC6
:200820004FF41B43D3E9000106F58C73C3E90001304B1B68E380D6F81831C3F303132B71D3
:20084000DAB2D6F81831C3F30313D8B22374D5F8C830032803F0030101EA020161F30103DB
:20086000C3F3011101EA020161F30513C3F3012101EA020161F30923C3F3013101EA02013A
:2008800061F30D33C5F8C830D5F8B03003F0030101EA020161F30103C3F3011101EA02016F
:2008A00061F30513C3F3012101EA020161F30923C3F3013102EA010262F30D33C5F8B0307D
:2008C0000FD0D4F8D8306FF38A236FF3CB23C4F8D830D4F8F8306FF38A236FF3CB23C4F833
:2008E000F8300020BDE8F88F208C0000F88A0000C0890000B4090840094B102209491A60B6
:200900001A44116001F5A0215160A1F58021916040F221221A601A68D205FCD4704700BFEA
:20092000003CA8A500000280F8B54FF4905200210646FFF7B7FE1C4B00221846B2F5905F45
:2009400006EB020112D0002717F0010FD0E900451CBFE443ED430137202FC1E9004501F1EB
:200960000801F1D102F580720830E7E70F4DAB4217D034460022D607D3E9000148BFC94344
:20098000F4E8026748BFC0438F4208BF864202D030BF0020F8BD0132202A2646EBD1083332
:2009A000E5E70120F8BD00BFE087000070880000C0F30723012B05D1C1F3072212B9CAB274
:2009C000052A1FD0C0F30723012B06D1C1F30723112B02D1CBB2052B16D0C0F30723012B90
:2009E00006D1C1F30723102B02D1C9B206290DD0C0F30723062B0BD0FF2B18460CBF05204C
:200A00000320704718467047022070470320704704207047074B4FF42B4203F1100143F817
:200A2000042F02F50B72B2F5344F00D930BF8B42F5D170470C8C000030B500F126438D006F
:200A4000012403F59603AC401C60024B8A40C25030BD00BF04004BA6C0F34070704710F094
:200A6000070F0CBF0120002070470000F0B51D4B0022D3F8004103F58C73C4F340740128D7
:200A800013D11F68182505FB0475174995F8BD5151F8226005F03F05D6F8D41065F31951C2
:200AA00065F39F61C6F8D41014E0022812D11F68182505FB04750C4995F8BD5151F8226043
:200AC00005F03F05D6F8D81065F3195165F39F61C6F8D8100132042A03F10403CFD100204B
:200AE000F0BD00BFF88A0000308D0000F8B51A4B1A4E1B6C002513F0070F0CBF01270027F2
:200B00000024174B1B799C421EDA5CB93368154A03EB471303F5F8739B68D2F838C0E8B2CC
:200B200001210CE0012C0DD1336807F1100203EB42130C4A9B68D2F838C0E8B202210E22AC
:200B40009BB2E0470134DCE70135042D06F10406D6D10020F8BD00BFC0890000108C0000A1
:200B6000208C0000C88D000038B501250024064BE0B25B694FF0FF3198470134042C05EAF4
:200B80000005F4D1284638BDC88D00002DE9F04F04468846174685B00193FFF73BFF2046AA
:200BA0004146FFF7DDFDDFF8B0C1644DDCF80020DCF81010D2F8683307F0010B43F001035E
:200BC000C1F86833D2F86423AB6C6BF310426BF3C7136BF38613D8B260F30702C1F8642354
:200BE000574E584A6FF3C303136033687A1C0092D3F8B8309DF800A032696AF39F73C2F8A4
:200C0000B830514C514B04201A4602933946A368CDF80CC09847029BA1461C46DDF80CC019
:200C2000D4F8B020DCF81030012F0BBFC3F8BC21C3F8CC20D4F8C820D4F8C8200CBFC3F8DD
:200C4000D821C3F8E820019AAB6C12B16BF3C71302E0FF4367F3C7136FF3C3036BF38613B4
:200C6000D9F8387021790D229BB20420B847EB6BD9F83870217903229BB20420B8476B6BEE
:200C8000D9F83870217901229BB20420B847AB6BD9F83870217902229BB20420B8472B6C5A
:200CA000D9F8387021790B229BB20420B8476B6CD9F838700C229BB204202179B847244F89
:200CC000FB88DA0602D5FFF711FF09E01E4A1B4B946BDB6C1D4A042011799BB20E22A0475E
:200CE000194A2B6D946B194A9BB2117904201622A047184C0420A3685146154A9847FB8892
:200D00001B0702D50098FFF7B1FE3368D7F814219B680F4962F31A53326904209360656D5D
:200D200043460222A847646D042002464346A446074905B0BDE8F04F604700BFC0890000CF
:200D4000308D0000C8930000C88D0000208C0000F88A0000448D0000B48D00002DE9F3419C
:200D60002C4E2D4C337B4FF0000807468DF807303146236886F80C8004209847274D9DF86A
:200D800007302749337304202B6898470320FFF7A7FCEB6A40469847EB6A01209847EB6A50
:200DA00002209847EB6A032098470420FFF798FC236A31460420984740F2FF11AB690420AC
:200DC0009847636A042098470520FFF789FCA36A414604209847C820B847A36A01210420F3
:200DE00098474FF4FA60B8470620FFF779FCE36A4146042098470120B8470720FFF770FC67
:200E0000236B03210122042098470220B84702B0BDE8F081208C0000C88D0000448D00003F
:200E2000F88A00002DE9F047314D324F324C334EEB69804698472B6839460420984723684C
:200E4000314600209847236831460120984723683146022098473146236803209847E36AC6
:200E600000209847E36A01209847E36A02209847E36A032098472B6A394604209847A36966
:200E800040F2FF11042098476B6A04209847EB6A0021042098470120C0472B6B3979012229
:200EA00004209847164E0220C0470420311806F10809636CB21D18369847A36C494632464C
:200EC00004209847EB6C49463246042098470E20FFF706FC397900232C6C1A220420A047D4
:200EE0000120C0476B6C39790420BDE8F0471847C88D0000208C0000448D0000F88A00008E
:200F0000C08900002DE9F04100262C4DF4B26B6920469847EB6920464FF48021984700283E
:200F2000264FF7DDBB6A6FF0010120469847013681B2BB6920469847042EE6D11320FFF7B8
:200F4000CFFB1F4B1F491B681F4CCB8030463B6D94F831209847D4F8FC3013B10120FFF70F
:200F600085FDD4F800310BB1FFF7C0FD174C2B6A0420984702F01CFD636D01210420984788
:200F80001920FFF7ADFB6B680E4904209847E3680F4904209847A36C042098470C49636875
:200FA00004209847A36998471A20FFF799FB636904200121BDE8F041184700BF448D0000A8
:200FC000B4090840F88A0000C0890000C88D0000208C00002DE9F04198462C4B2C4C1B68A9
:200FE0000F46A3622B4B16461B6884F83010E362294B84F8312098800120FFF771FBFFF76F
:20100000B3FD054600283ED1FFF704FD94F8311094F83000FFF7A4FB0C20FFF761FB0D20DE
:20102000FFF75EFB4046FFF7FDFE1120FFF758FB4046FFF767FF1B20FFF752FB174B184C4A
:201040001B68D3F8CC3013F4407F0FD02A46384631460123FFF79AFD02F0AAFC114BA56B87
:201060001B68042003210D229BB2A8471D20FFF737FB0D4A2369042011789847BDE8F04190
:201080002020FFF72DBBBDE8F08100BF20060840C089000004040840F88A0000B48D000093
:2010A000C88D0000C8930000CC930000032803D81A4B53F8203003E004282BD1174B1B682B
:2010C0005B6811F0010208BF62F3410301F0020292B218BF43F0020312B143F0080301E0BF
:2010E00062F3C30301F0040292B212B143F0200301E062F3451301F0200189B211B143F0B1
:20110000040301E061F38203044A52F820200020536070474FF0FF30704700BF308D00000B
:201120002DE9F04F042808BF002487B008BF04940C7C18BF0490032C14BFA3464FF0020B83
:20114000049CA64D55F82460049C049F463455F8277051F82440BF69C7F300370097049F8A
:2011600055F82770BD6925F48055BD61970703D4550700F1BF80A8E000250595059D5D45CD
:20118000F6D200250395039D082D059D5ADC039F4FF0130C0CFB057504EB8505B5F84470C2
:2011A000059DDDF80CE04FF014080CFB05E50E3504EB85056D89DFF828E2ADB245EA074513
:2011C000059FDDF80C9008FB07970EEB4707FF8B4FEA4309BD51059D039F0CFB057504EB41
:2011E0008505B5F820A0059D4D4404EB450595F847510195059D2F46039D0CFB075506357C
:2012000004EB8505B5F806C0059D9DF90470A94409F1A00904EB490999F80650BA441FFA67
:201220008CFC6FB2BC44059D4CEA0A47DDF80CC008FB05C80EEB480EBEF80C50AF51039D6A
:2012400001359FE74FF04C0A0AFB054595F869E0059DDFF88CC10AFB054560352D7A059F23
:2012600045EA0E2E282507FB055767443F894FEA430846F807E0059F0AFB074797F86790BF
:20128000059F474404EB470797F847E1059F4FFA8EFE0AFB074797F866A0059FF144474466
:2012A000A03704EB470797F80680DDF814E04FFA88F70EFB0555AC44BCF80A50BA444AEAE1
:2012C00009277751059D013557E7049D434C009E54F82550AC6924F4805444EA0634AC61FB
:2012E000049C013484420494FFF62AAF002007B0BDE8F08F00250595059D5D45E5D2002513
:201300000395039D082D059D65DC039F4FF0120E0EFB057504EB8505B5F8B880059D4FEAC0
:2013200043094D4404EB450595F87B71059DDDF80CC07FB20EFB05C52C3504EB8505B5F850
:2013400006C0059DB8444D44BC3504EB4505AD781FFA8CFC6FB2BC44059D4CEA0847DDF88B
:201360000CC0DFF87C800EFB05C508EB4505B5F85C50AF51059D039F0EFB057504EB850525
:20138000B5F8DCA0059D4D4404EB450595F87BC1059F039D4FFA8CFC0EFB0757343704EB19
:2013A00087077F89059DBFB24D44BC3504EB4505AD78E2446DB22F44059DDDF80CC047EA78
:2013C0000A470EFB05CE08EB4E08B8F86E50AF51039D013594E701358DE700BF308D0000B2
:2013E0007088000004282DE9F74F18BF804681460F46934608BF4FF0000808F14504A300E8
:20140000754C01EB030A1C4425685AF8046FAB69C3F300330193AB6923F48053AB61D5F8F8
:20142000B43043F40013C5F8B430D5F8B4303288C3F3150343EA8253C5F8B430D5F8B43050
:2014400023F40013C5F8B430FB88990641BFB378EB67B379C5F8803044BFB37AC5F88430E8
:20146000FB885A061ED52268136943F0800313612268536843F001035360D6F80E30EB66DA
:2014800023689A6F42F001029A679A6F22F001029A675A6822F001025A602268136923F0B9
:2014A00080031361FB88DB0726D52268536843F0020353602268136943F480631361B28AD5
:2014C000738A43EA0243C5F8F030F27DB37D43EA0223C5F8FC30728B338B43EA0243C5F8FC
:2014E000E435727F337F43EA0223C5F8F0352268136923F480631361FB88980714D52268F3
:2015000004205368394643F0080353602268136943F48073136102225B46FFF701FE226894
:20152000136923F480731361FB88590714D5226804205368394643F02003536022681369EE
:2015400043F40073136102465B46FFF7E9FD2268136923F400731361FB881A0614D53B7C61
:20156000012B11D12268136943F040031361B6F9B021B6F9AE3143EA0243C5F894362268DC
:20158000136923F040031361FB88DB0511D52268136943F040031361B6F9B821B6F9B631AE
:2015A00043EA0243C5F898362268136923F04003136154F8042B0199936908F1010823F434
:2015C000805343EA0133C8459361FFF61DAF002003B0BDE8F08F00BF1C8C0000032803D8B1
:2015E0000B4B53F8203003E004280DD1084B1B68074A1B6D52F8202043F0807313656FF3D4
:2016000018631365002070474FF0FF30704700BF308D0000032803D80E4B53F8203003E082
:20162000042814D10B4B1B680A4AD3F8B03052F8202043F02003C2F8B0306FF38613C2F892
:20164000B03043F04003C2F8B030002070474FF0FF307047308D0000032803D80C4B53F839
:20166000203003E0042810D1094B1B68084AD3F8B03052F8202061F31123C2F8B0306FF348
:201680004513C2F8B030002070474FF0FF307047308D0000032803D80A4B53F8203006E0C3
:2016A000042802D04FF0FF307047064B1B68D3F8B020D3F8B4305006F4D59206F2D501EA80
:2016C00003007047308D0000032803D8134B53F8203006E0042802D04FF0FF3070470F4B31
:2016E0001B684A1CD3F8B03006D10C4B53F82030D3F8B400800D70470231EDD1074A43F451
:20170000000352F82020C2F8B030D2F8B4006FF3D753C2F8B030C0F309207047308D0000AE
:20172000032830B503D84A4B53F8202006E0042802D04FF0FF3030BD454B1A68D2F8C83388
:20174000D2F8CC13D2F8D043072262F30F04404A43F0006352F8201043F48023C1F8D04332
:20176000012464F38303C1F8C833042843F00203C1F8C83314D11468D4F8CC13C907FBD5EF
:201780005468D4F8CC13CD07FBD59468D4F8CC13C907FBD5D468D4F8CC13CD07FBD503E089
:2017A000D1F8CC43E407FBD552F820406FF34103C4F8C83303286FF39243C4F8C83303D99A
:2017C0000428B6D1224B1C68D4F8C833D4F8CC13D4F8D04352F8204043F48023C1F3C20515
:2017E000C4F8C833C1F3821165F3D13361F30E336FF38303C4F8C833042843F00203C4F83B
:20180000C83315D112490C68D4F8CC13C907FBD55468D4F8CC13CD07FBD59468D4F8CC131B
:20182000C907FBD5D468D4F8CC13CD07FBD503E0D4F8CC13C907FBD552F820206FF341031F
:20184000C2F8C8336FF39243C2F8C833002030BD308D000010B50C780023497864F30F2367
:2018600061F307031178527861F31F6362F31743024A52F82020C2F8AC3010BD308D00003C
:20188000F0B54C780B78002743EA042363F31F47CC788B78002643EA042363F30F074C7933
:2018A0000B79002543EA042363F31F46CC798B7991F80FE043EA042363F30F064C7A0B7AA5
:2018C00043EA042363F31F45CC7A8B7A43EA042363F30F054C7B0B7B43EA0423002463F3D6
:2018E0001F448B7B43EA0E2363F30F04537803F00101137803F0010343EA4103002163F38E
:201900008F31D37803F0010E937803F0010343EA4E0363F30D31537903F0010E137903F059
:20192000010343EA4E0363F38B21D37903F0010E937903F0010343EA4E0363F30921537A07
:2019400003F0010E137A03F0010343EA4E0363F38711D37A03F0010E937A03F0010343EA15
:201960004E0363F30511537B03F0010E137B03F0010343EA4E0363F38301D37B03F0010EAD
:20198000937B03F0010343EA4E0363F30101164B53F82030C3F89870C3F89C60C3F8A0504B
:2019A000C3F8A440C3F8A810C3F83C79C3F84069C3F84459C3F84849C3F86C19C3F84C79DD
:2019C000C3F85069C3F85459C3F85849C3F87019C3F85C79C3F86069C3F86459C3F8684993
:2019E000C3F87419F0BD00BF308D000070B50446264891F826500268042C536843F480038B
:201A000065F39A6350F8245043F000636B60936891F8275065F31343D1F8145165F31A53B8
:201A200050F82450AB6093694D7E50F8240065F3CF338D7E65F38E33CD7E65F34D330D7F7F
:201A400065F30C334D7F65F3CB2318BF25468361D2F8B83091F82C2008BF002562F34D336F
:201A6000C0F8B830EEB23046FFF7D4FD30464FF48021FFF70FFE0028F8DD30460135FFF7ED
:201A8000ADFDA542EEDB002070BD00BF308D00000F4BD1F8F82053F82030C3F8BC20D1F8ED
:201AA000FC20C3F8C420D1F80021C3F8CC20D1F80421C3F8D420D1F80821C3F8DC20D1F8CB
:201AC0000C21C3F83429D1F81021C3F8002A7047308D0000012910B503D11146FFF7D8FF87
:201AE00020E002291ED1104BD2F8F81053F82030C3F8C010D2F8FC10C3F8C810D2F8001135
:201B0000C3F8D010D2F80411C3F8D810D2F80811C3F8E010D2F80C11C3F83819D2F810212C
:201B2000C3F8042A002010BD308D00000328F8B506460C4601D8074603E0042840F0908126
:201B40000027C94D627C55F827301B6862F39F73A27C62F31D73E27C62F3DB6343F0407302
:201B6000227D6FF3575362F31453627D62F3D343A27D62F38E33E27D62F30D23227E62F3A6
:201B8000C713D4F8E020C2F3807262F39A63D4F8D820C2F3403262F3CF33D4F8E020D20FB7
:201BA00062F38613D4F8D820C2F3853262F3050355F826201360237C012B0BD155F8273059
:201BC000DB69C3F3006262F3196355F826206FF30D33D36155F827108B69D4F8E02043F4F4
:201BE0008043C2F3016262F3010355F826209361D1F8B030D4F8DC00C0F3807060F30003E0
:201C0000D4F8DC00C0F3074060F31F63C2F8B0304B68D4F8D8106FF39653C1F3802161F358
:201C20001C73D4F8D810C1F3C02161F35D73D4F8D810C1F3402161F3D753536055F827300A
:201C400094F828209B6862F30603D4F8EC2062F3CD1355F82620936055F82730DB68D4F809
:201C6000EC20C2F3C02262F31C73D4F8E020C2F3407262F39E73D4F8E020C2F3033262F339
:201C80001B63D4F8E020C2F3032262F31753D4F8E020C2F3031262F31343D4F8E02062F3FF
:201CA0000F33D4F8D820C2F3003262F3DF73D4F8E020C2F3004262F35D7355F82620D360E2
:201CC00055F827301B69D4F8D820C2F3002262F3CB2355F82620136155F8271094F82B209C
:201CE0004B6962F3050394F8292062F38A1394F82A2062F3CB23D4F8EC20C2F3074262F3C8
:201D00001F6355F826205361D1F8C803D1F8D423D1F8E033D1F8ECC3D4F8E4E040F0004052
:201D2000CEF3C23E6FF314506EF31A60D4F8E4E0CEF3023E6EF31E70D4F8F0E0CEF3C24E54
:201D40006EF3D542D4F8F0E0CEF3024E6EF31242D4F8E4E0CEF3C20E6EF3C502D4F8E4E0D0
:201D60006EF30202D4F8E8E0CEF3024E6EF3C503D4F8E8E01EF4E02FD4F8E4E008BF43F0F1
:201D80000203CEF3422E6EF3CD22D4F8E4E018BF6FF34103CEF3821E6EF30A22D4F8E8E02E
:201DA00043F00103CEF3C24E6FF382036EF3CD23D4F808E11EF4601FD4F8E4E008BF43F40F
:201DC0000073CEF3055E6EF3050CD4F8E4E018BF6FF349234FEA9E6E6EF30D2C43F48073BC
:201DE00055F826E06FF38A23CEF8C803CEF8D423CEF8E033CEF8ECC3D1F80034D4F8F0200C
:201E00003046C2F3013262F38F33D4F8F0202146C2F3812262F30D33D4F8F020C2F3012269
:201E200062F30923D4F8F02062F30303D4F8F020C2F3031262F30713CEF80034FFF728FEBF
:201E400055F82730A288D3F8B830002062F30B03012262F39F7355F82620C2F8B830F8BD0A
:201E60004FF0FF30F8BD00BF308D0000042870B54FF000034CD81C46072A61F31D744FF055
:201E8000090161F3195414D98A4205D00A2A05D0082A05D1102304E0082302E0042300E0AD
:201EA00030BF43F0020300216FF300036FF311010FE063F304136FF3C30301216FF3820374
:201EC00001FA02F243F0020300216FF3000362F31101114A102552F820606FF30005346099
:201EE00052F82040A363A16052F820305D6011684B68002BFCD151684B68002BFCD1916859
:201F00004B68002BFCD1D36858680028FCD170BD4FF0FF3070BD00BFB48D000010B503286E
:201F20009FBF0A4B002461F31D7462F319549FBF53F820200121146053F820209DBF51600C
:201F400053F82030D8684FF0FF3010BDB48D0000032810B50AD8194B012953F820309A6A2B
:201F6000104610D142F48030986208E004280DD1124B01291C68A26A104604D109E09A6A29
:201F8000D203FCD518E0C0F3004010BD4FF0FF3010BD42F480301A699062A26AD203FCD59B
:201FA00059688A6AD403FCD599688A6AD003FCD5DA68936AD903FCD5012010BDB48D000010
:201FC0000328F0B503D8174B53F8203003E0042824D1144B1B689A6A124B42F0010253F892
:201FE000201004288A620FD193E8E000DC68A96A8907FCD5B16A8907F9D5B96A8907F6D5AF
:20200000A16A8907F3D502E08C6AA407FCD553F820306FF300029A620120F0BD4FF0FF30D2
:20202000F0BD00BFB48D0000032803D80E4B53F8203003E0042813D10B4B1B684A79D3F89F
:20204000803262F317438A7962F30F23CA7962F30103054A52F820200120C2F880327047DC
:202060004FF0FF30704700BFB48D0000032803D80E4B53F8203003E0042813D10B4B1B6875
:202080009B6A0A4A39B952F8202061F30C33936243F4805303E052F820206FF30C339362D6
:2020A000002070474FF0FF30704700BFB48D0000032803D80C4B53F8203003E0042810D13C
:2020C000094B1B684A1C18BF074A9B6A1BBF52F8202061F30413C3F30010936218BF002015
:2020E00070474FF0FF307047B48D0000032810B503D80C4B53F8203003E004280FD1094BC3
:202100001B68084C5B6A54F820006FF30003436261F3051362F300034362002010BD4FF018
:20212000FF3010BDB48D0000032803D80E4B53F8203003E0042814D10B4B1B6891F853209F
:202140005B6C62F3C30391F8522062F3820391F84F2062F34103044A52F820200120536487
:2021600070474FF0FF307047B48D000063F39E7202F003030B4063F30102C2F301130B402C
:2021800063F30512C2F301231940174B61F3092253F820100328C1F800236FF3DF72C1F8D1
:2021A000002342F00042C1F8002304D8D1F804331807FBD513E01868D0F804231207FBD596
:2021C0005868D0F804231207FBD59868D0F804231207FBD5DA68D2F804331B07FBD5002238
:2021E000C1F80023704700BFB48D000070B54C780B78CD7843EA0423002463F30F048B78B7
:20220000CE7943EA052363F31F444D790B7943EA0525002365F30F038D7945EA062565F383
:202220001F433D4D55F82000C0F81043C0F814334C7A0B7ACD7A43EA0423002463F30F04C8
:202240008B7A43EA052363F31F444D7B0B7B43EA0525002365F30F03CD7B897BC0F84043B2
:2022600041EA052161F31F43C0F844335178137801F0010103F0010343EA4101002361F304
:202280000103D17801F00104917801F0010141EA440161F30513517901F00104117901F0E8
:2022A000010141EA440161F30923D17901F00104917901F0010141EA440161F30D33517A20
:2022C00001F00104117A01F0010141EA440161F31143D17A01F00104917A01F0010141EA08
:2022E000440161F31553517B01F00104117B01F0010141EA440161F31963D17B927B01F012
:20230000010102F0010242EA410262F31D73C0F81833002070BD00BFB48D0000024B0122B2
:202320001A6000221A6070470011A2A5024B1A68D207FCD4704700BF0411A2A5032803D828
:202340000F4B53F8203003E0042816D10C4B1B68D3F83832C3F3401211B16FF3451301E01E
:2023600043F02003064951F820100020C1F8383282F00103034A136070474FF0FF307047EA
:20238000B48D0000CC93000010B5544B012902BF53F82040F03443F8204053F82030146EC7
:2023A00001299C65546EDC65946E1C66D46E5C66146F9C66546FDC66946F1C67D46F5C6751
:2023C000D2F880409C67D2F88440DC67D2F88840C3F88840D2F88C40C3F88C40D2F89040D3
:2023E000C3F89C40D2F89440C3F8A440D2F89840C3F8A840D2F89C40C3F8B840D2F8A040C1
:20240000C3F8BC40D2F8A440C3F8C040D2F8A840C3F8C440D2F8AC40C3F8C840D2F8B440F4
:20242000C3F8D040D2F8B840C3F8D440D2F8BC40C3F8D840D2F8C040C3F8E040D2F8C44034
:20244000C3F8E440D2F8CC40C3F8EC40D2F8D040C3F8F840D2F8D440C3F8FC40D2F8D8405C
:20246000C3F80041D2F8DC40C3F80441D2F8E040C3F80841D2F8E440C3F80C41D2F8E840A4
:20248000C3F81041D2F8EC40C3F81441D2F8F040C3F81841D2F8F440C3F81C41D2F8F84004
:2024A000C3F82041D2F8FC40C3F82441D2F80041C3F82841D2F80441C3F82C41D2F8084161
:2024C000C3F83041D2F80C21C3F8342102BF034AF03B42F82030002010BD00BFB48D000019
:2024E00038B50C4605462C4B22469B68002198472A4B002053F82530302260F38612C3F843
:2025000038220246217A61F35962617A61F31862A17A61F34D32E17A61F30C32217B61F3FB
:202520004102617B61F300021A640246A17B61F3C302E17B61F38202217C61F34102617CE6
:2025400061F300029A646269C3F86022A269C3F86422E269C3F84822226AC3F84C22626AE2
:20256000C3F85022A26AC3F85422E26AC3F85822226BC3F86822626BC3F87022A26BC3F8BC
:202580007822E26BC3F86C22226CC3F87422626CC3F87C2238BD00BFC88D0000B48D0000BB
:2025A00070B591F848200646022A0C464FF0000305D10979012902D161F3196301E062F39E
:2025C000196394F849201F4D62F30F2394F84A20304662F3861394F84B20002162F3451378
:2025E00094F84C2062F3041394F84D2062F3C30394F84E2062F3000355F82620C2F838325A
:20260000FFF79CFE94F85F20002362F31B6394F85D2062F34E333AB994F85C2062F31343A4
:2026200094F85E2062F30C3355F826200020D364D4F8C830C2F8E830D4F8B030C2F8CC301A
:2026400070BD00BFB48D0000042830B528D8DBB2002563F31105144B002461F31D7453F86B
:20266000201062F319540C6053F8201016248C638D6053F8201010226FF300024A6019682F
:202680004A68002AFCD159684A68002AFCD199684A68002AFCD1DB6858680028FCD130BD98
:2026A0004FF0FF3030BD00BFB48D0000032870B503D81C4C54F8205003E004282FD1194CFC
:2026C00025682C6D6E6D44F4800462F30406154A6FF3145452F8205061F3196463F311447F
:2026E0006E6504282C6544F480142C6511D192E83200D3680A6DD602FCD4226DD002F9D4D7
:202700002A6DD202F6D4186DC0F300500028F1D170BD286DC0F300500028FAD170BD4FF0EE
:20272000FF3070BDB48D0000032803D81A4B53F8203003E004282BD1174B1B681B6D164A1E
:202740006FF396536FF3145361F3196352F8201004280B6543F480130B65134612D1116890
:202760000A6DD202FCD459680A6DD002FCD499680A6DD202FCD4DB68186DC0F30050002855
:20278000FAD17047086DC0F300500028FAD170474FF0FF30704700BFB48D0000032803D86A
:2027A000154B53F8203003E0042821D1124B1B681A6A114B42F0010253F8201004280A6215
:2027C00011D119680A6AD207FCD459680A6AD007FCD499680A6AD207FCD4DB68186A10F0BA
:2027E0000100FBD17047086A10F00100FBD170474FF0FF30704700BFB48D00000346406948
:2028000018B1024A597E5268104770474C8E00000346406918B1024A997E52681047704744
:202820004C8E0000814238BF014638B51546127E002494422B6905DA53F83400814202D262
:202840000134F6E7013C686810B9286868B908E00B4A03EBC4035268D98890470028F4D00F
:2028600038BD2B6953F8340038BD2B69054A03EBC4035268998890470028F2D038BD00BF73
:20288000548E00004C8E000010B50446806810B9E06830B910BD064B5B6898470028F7D0DC
:2028A00010BD044B01215B68BDE81040184700BF408E00004C8E000010B50446C06810B95C
:2028C000606850B906E00B4B00215B6898470028F6D010BDA06838B910BD074B01215B6870
:2028E00098470028F6D010BD044BBDE810409B68184700BF4C8E0000548E0000408E00004F
:202900002DE9F74F0E9D92460F9A9B46954280460D9B109C0AD003FB00F94B43019302E088
:2029200088424ED301350F9B9D4201D3002077E03BF81560B8F1000F06F003033AF81320E1
:2029400026F0030343EA024704DB0C9B03EB0902505D1EE0B4F1007F12D009D8B4F1807F30
:2029600016D1314A1068314A30441269904710E0B4F1407F06D0B4F1806F09D12C4A02E04C
:202980002C4A00E02C4A126838469047C0B200E0FF200C9B019A9A18119B515D032BC1D816
:2029A00001A252F823F000BF21610000B9610000BF610000C3610000884202D8B2E7884271
:2029C000B0D0B4F1007F01D11A4A04E007D9B4F1407F1AD1184A52683846904712E0B4F102
:2029E000807F9FD1104B114F1B681E443046FB689847A8B93B6830469847012892D07B6849
:202A00003046984700288DD00AE0B4F1806F89D1074A09B1526800E0926838469047F1E738
:202A200003B0BDE8F08F00BFD89300002C8E0000408E00004C8E0000548E000030B50B68F9
:202A400008495A7809689C8A0023934206DA0D1955F83350854203D90133F6E74FF0FF33C9
:202A6000184630BDD89300002DE9F04F93468FB00E461D999DF860200A911E999DF8644089
:202A80000D910BEB03010B4613440993002A08BF0B46089323440C930A9B1AAF0A44054670
:202AA00097E880030B910791144433B10D9B13F1000A18BF4FF0010A01E0DDF828A0089BAC
:202AC000CDF8009002930C9B019403934FF08063049300230593284631463A464346FFF7E2
:202AE0000FFF002840F08380079B05900293099BCDF8009003934FF0407304930194284686
:202B000031463A464346FFF7FBFE00286FD1BAF1000F68D14FF080730493CDF80090019438
:202B2000CDF808A0CDF80CB0CDF814A0284631463A464346FFF7E4FE002858D10B9BCDF8AC
:202B4000009003934FF000730493022305930194CDF808B0284631463A464346FFF7D0FE85
:202B6000002844D1BAF1000F29D0079B4FF0010A0293099BCDF8009003934FF040730493CC
:202B80000194CDF814A0284631463A464346FFF7B7FE60BB089B28461A930C9B31461B93E9
:202BA0004FF080631C933A464346CDF860901994CDF874A00FB0BDE8F04FFFF7A1BE4FF0C9
:202BC0008073049301230593CDF800900194CDF808A0CDF80CB0284631463A464346FFF7F3
:202BE0008FFE20B9C1E70D980A9B9847A6E70FB0BDE8F08F10B588B09DF8284000949DF80B
:202C00002C4001940C9C02940D9C03940E9C0494002405940694FFF727FF08B010BD0000FB
:202C20002DE9F04F894614468246DFF8E881517AD8F8003091B0D2F800B00C9300220123A3
:202C4000704849EA01710F93BBF81470FDF7C0FA21465046FFF7F2FE214606464846FFF776
:202C6000EDFE8642054600F0C380002EC0F2C2800028C0F2BF80637A07EBC5070A93237A13
:202C80000993614B09985A690D9390470C9B22693B445F680B901744B8420D9B06D8D3F858
:202CA00010C0099839460A9A0FABE0476268002A00F08280137E002B7ED050464946FFF794
:202CC000B1FD031EC0F29A802146FFF7B7FE81466068FFF7D9FD002840F08F809BF80510DD
:202CE000DFF830A19BF80320DAF800E09BF8043000919BF809100BF10C080191CDF80880D1
:202D0000BBF8120070440390BBF816103046714404913E490591616806914946FFF7A4FE6A
:202D200000286AD1DAF80030BBF81620BBF812E01A4400929BF80220029001929BF8032020
:202D4000304603924FF08072049202220592294642467344FFF7D4FD00284ED19BF8051082
:202D6000DAF800609BF803209BF8043000919BF80910CDF808800191BBF8120030440390BC
:202D8000BBF8161048463144049121490591616806912946FFF768FE78BB6068FFF78CFD1D
:202DA00058BB0B9BBB4223D9174B09981C6939460A9A0FABA0471BE09BF80510D8F8004062
:202DC0009BF803209BF8043000919BF8091001910BF10C010291BBF8120020440390BBF89C
:202DE00016103046214404912946FFF703FFD7E7002303E04FF0FF3300E00346184611B059
:202E0000BDE8F08FD487000094930000FD5F000011600000D893000010B50368094A587881
:202E20009B8A1268043313440022824203F1080306DA53F8084C01320C4443F8084CF4E714
:202E400010BD00BFD893000010B500F0B5F901F0BFFCBDE81040014B1B6818479493000022
:202E600010B513680068022B096807D0032B08D053B9BDE81040064B1B681847044BDB6869
:202E800001E0034B1B6998474FF0FF3010BD00BF148F000038B504460D46AC4210DC094B4B
:202EA00020465B69984758B1036A3BB19847024620B105482146002300F008F80134ECE7E0
:202EC00038BD00BF148F0000300000807047002070470020704700207047006880B270475E
:202EE000036889B21B0C1B040B430360036813F48033FBD118467047002070470020704781
:202F00000020704703681868C00F704730B50368C4881B68002B01DBE0B230BD0649043041
:202F20001940002293B2A34204D250F8045F01328D42F7D1D8B230BD073FFF03214B10B5B1
:202F4000984204460A460BD003F58013984207D01D4B1B6803F19C5303F58073984227D15B
:202F6000236823F0100141EA021121600021206810F0800F154803D0814203D00131F6E7D6
:202F800081421DD112482146C3F300130CE0814207D00131206810F4803F0C48F7D1814214
:202FA0000ED121460A489BB2BDE81040FFF78EBF036889B2180C0004014321600021E9E770
:202FC000002010BD000180A6A88E0000A0860100100000800B46F0B5C28804469342016828
:202FE000868800F1080004D311462E481A46002352E00A6822F010020A608D6825F04052D5
:2030000022F0030242F002028A6050F823000B68C0F3052E002B0BDA00230F6817F0005FA5
:20302000214F03D1BB4222D00133F6E7BB421ED00B6823F000430B60962303FB0EF20B0C5F
:203040001B049A510B68194A1A40194B42F0004203401A430A600023086810F0005F124808
:2030600003D1834203D00133F6E7834201D1114811E00A68002342F010020A6008680A4EE7
:2030800010F0800003D0B34203D00133F6E7B34206D108482168044BBDE8F040FFF716BF70
:2030A0008D60F0BD17000080A0860100F8C000FC073FFF031400008030B50446036800216D
:2030C0001A6822F010021A6018680B4D10F0800003D0A94203D00131F6E7A94206D121688D
:2030E0000648054BBDE83040FFF7F0BE1A6822F000421A6030BD00BFA086010013000080C3
:2031000030B50446016800230A6842F0004242F010020A60086810F0005F0E4803D18342A2
:203120000FD00133F6E783420BD000230868094D10F0800003D0AB4203D00133F6E7AB4205
:2031400006D121680448034BBDE83040FFF7BEBE30BD00BFA0860100120000800A4B98425A
:203160000BD003F58013984207D0084B1B6803F19C5303F58073984203D10068C0F30010BB
:203180007047006880B27047000180A6A88E000081B10123002902DB49005B00FAE70022C7
:2031A00033B181429CBF401AD21849085B08F7E710467047084670470020704709289DBFC1
:2031C000024B242202FB0030002070472C8F00002DE9F341154D01232424019304FB00539F
:2031E0001F7A19B146F2A8121A6100E01961444305EB04081946D8F80C00FFF71FFC2B5952
:203200000B4A9B8A126803EBC00010444368D8F81010084A19441469384698F8092001AB0E
:20322000A047002002B0BDE8F08100BF2C8F0000D8930000949300002DE9F74F0C463C4980
:2032400024260228804606FB00161FD1394B3A4D1F682A683948019239493A4A27F0010CCB
:20326000D0F80090D1F800A0D2F800B0C3F800C0019B23F001032B6029F0010505602AF0BC
:20328000010008602BF00101116018E0042816D12D4A944207D12D4A40F61A701268F8213D
:2032A0009268526A0AE0D1F89C10914207D140F61A70264AFA2112689268526A90471C4D93
:2032C000242202FB08525369083223B1516830462246984704E0506821463246FFF7A0FC04
:2032E0000646E8B9242202FB0852B8F1020FD4601AD1104A1760019B02F580621360C2F8F8
:203300000094C2F800A8C2F800BC6EB1242202FB08554146EA6823460D48FFF7D7FD03E03E
:20332000B8F1020FF2D1E4E7304603B0BDE8F08F2C8F0000000084A6000484A6000884A6B3
:20334000000C84A6001084A6D0540800C493000020000080024B242202FB0030FFF75CBD0B
:203360002C8F0000036843F010030360704703689B00FCD5704700F58070FDF7B1B910B531
:2033800001249C40914204D80B5823430B500431F8E7002010BD00002DE9F0412D4B2E4F1C
:2033A00093F8985086B07B6A2846984780464FF49870FDF795F9002401238DE81800274B58
:2033C00021460293264B22460393264B4FF0FF3004932346FFF70EFC064640F23110FDF7F0
:2033E0007FF97B692846D8F824809847C0471E4A1E4D136840F2331043F010031360FDF739
:203400006FF929681A4A1B488B5823F0405323F0030343F0805343F001038B5023464FF486
:20342000405143F23C02FFF7AAFF134A134913684FF49B7043F080531360536843F080532D
:2034400053602A680E4BD150FDF74AF9304606B0BDE8F0812C8F000094930000888E00003C
:20346000B2900000AE8E0000000180A3A88E0000280180A3000080A3000880A3FF0000805B
:20348000300180A370B501460468C06886B0B8B1FFF7D4FA0C4B014660791E68E278237982
:2034A0000090607A019004F10C000290658A35440395E08A304404904FF0FF30FFF79AFB13
:2034C000002006B070BD00BFD893000008B50448FFF7D8FF40F28110FDF702F9002008BD52
:2034E0007090000008B54FF4B870FDF7F9F80248FFF7C8FF002008BD2890000008B54FF41B
:20350000B070FDF7EDF80248FFF7BCFF002008BD0490000008B54FF4A870FDF7E1F802480F
:20352000FFF7B0FF002008BDE08F00002DE9F0412E4F2F4E97F8745086B0736A284698479E
:2035400080464FF49070FDF7CBF806230093294B00210293284B01910393284B4FF0FF3049
:2035600004930A460B46FFF745FB0446002838D107F16C00FFF786FF4FF49170FDF7B0F8A3
:2035800073692846D8F824709847B84740F22310FDF7A6F81A4A1B4813684FF4405123F07F
:2035A000405323F0030343F0805343F00103136043F244022346FFF7E2FE134A40F227102F
:2035C000136843F080531360536843F080535360136D43F0010313650C4A0D4B1A60FDF738
:2035E0007FF8204606B0BDE8F08100BF2C8F000094930000AC8E0000EE8E00005F8E0000DE
:20360000280190A6000090A6000890A6FF000080300190A62DE9F043314F324E97F8505079
:2036200087B0736A2846984781464FF48870FDF757F82D4B002102932C4B4FF0030803935F
:203640002B4BCDF80080049301914FF0FF300A460B46FFF7CFFA044600283DD1254B0122A5
:203660001A6007F14800C3F80480FFF70BFF4FF48970FDF735F873692846D9F82470984766
:20368000B84740F21310FDF72BF81B4A1B4813684FF4405123F0405323F0030343F08053E3
:2036A00043F00103136043F244022346FFF767FE134A4FF48B70136843F0805313605368D7
:2036C00043F080535360136D43F0010313650D4A0D4B1A60FDF704F8204607B0BDE8F083B4
:2036E0002C8F0000949300008A8E0000E88E00005C8E0000001880A6280180A6000080A6BD
:20370000000880A6FF000080300180A6036823F04052084B22F003020B4013430360064BD6
:20372000994206D050F8083C002B02DA0838FFF71EBE70470300003001000010F0B53B4C0C
:203740004FF0000EBDF81C60BDF82050099FC4F800E0DFF80CE1CEF80060CEF80460CEF8A8
:203760000860CEF80C60324E0EF10C0E35607560B560F560050445F0905545F48055A6F576
:20378000987635602B4D2C4EA5F50175C5F804620C3EC5F808622026C5F8F06117B1274E5F
:2037A0002E6000E02F60012841F4905108BF0904234D244E0CBF41F4845109042E6008BFE0
:2037C00041F01C0105F104051F4815BF41F484512960002600211CBF41F01C012E6042F49A
:2037E00090520160194D1A4853B11A4912041B0442F48152194342F014022960026007E0A3
:20380000120442F48152134B42F014022A600360114B124A1A60A2F580329A6040F27123BB
:2038200023602368DB05FCD4F0BD00BF003CA8A5403FA8A5143EA8A51018031200000280AB
:20384000143CA8A500000780283CA8A51C3CA8A5203CA8A534180012243CA8A500000480B6
:20386000303FA8A5054B186003F58013186003F58013186003F5801318607047080100A655
:2038800008B50748FFF773FD0648FFF770FD0648FFF76DFDBDE808400448FFF768BD00BF44
:2038A000000100A6000110A6000120A6000130A62DE9F0410F46364E364D374C002832D0BC
:2038C000C0F30222962353434FF02642136002F58012136002F580121360DFF8C48002F59E
:2038E00080121360D8F800202C4B134043F000431843C8F80000306028602060FFF7C0FF2B
:20390000D8F8003043F01003C8F80030336843F0100333602B6843F010032B60236843F0DB
:203920001003236014E01E4B1A6822F010021A60326822F0100232602A6822F010022A60E4
:20394000226822F0100222601860306028602060144B154A19680A40BA4217D01A68C7F37F
:20396000022022F010021A60962242430F4802600A4A0A403A4342F000421A601968094AB4
:203980008900FBD5136843F010031360BDE8F081000110A6000120A6000130A6F8C000FC7B
:2039A000000100A64001A8A5073FFF030400A8A5054B064A103B1A6140F271221A601A6812
:2039C000D205FCD4704700BF103CA8A5000002802DE9F04F05468BB0012308934C4B00225C
:2039E0001C680992E388E68A234433F8251003EB85035B88A0190793A678638A069104EBC9
:203A0000030E34F8038006FB05F3C15CC61873780231A04458F821700233BEF8021004EB23
:203A2000830353F801B0A38AA94603EBC50354F803A0384B9A450DD1374B03205B6A9B8A74
:203A40002344D969354B01F5C341D3F810C0283108ABE04738465946FFF72AFF5FB94FF4DE
:203A60007A73012002930393009701970497014605223B460AE00699B278F3780291079903
:203A8000002003910090019004900421FFF756FE082D02DD05F1020903E0052DC8BF05F1A7
:203AA0000109217A082901F1020301D9194602E0052988BF013158F8232046F29053C2F314
:203AC00009405843C2F30523B0FBF3F002F00702D0404FF4FA6300F2CF70B0FBF3F05FFAD4
:203AE00089F280B2C9B20E4BFDF774FA094B01219A459CBF012309930A4B18680023826891
:203B00000093946909AAA0470BB0BDE8F08F00BFD8930000C8E40C002C8F000094930000D8
:203B200099870000C49300008140C94310B50C4C824023680B480B401343236003680B40AA
:203B40001343036000F5801003680B401343036000F58010036819400A43026010BD00BF34
:203B6000000800A6000810A670B5962646439D0005F1254505F528052E60094D5B015E5954
:203B800042F00042074C42EA014141EA0022344014435C515819BDE87040FFF7E8BB00BF0D
:203BA0002001A8A5F8C000FCF0B5414C87B04FF4A070FCF795FD2368002B11DB00220123BA
:203BC000042040F21F11FFF7CFFF3A4A136823F0405323F0030343F0805343F0010313602D
:203BE000354D40F24110FCF77BFD2B68002B11DB002203230D2040F23B11FFF7B5FF2F4A95
:203C0000136823F0405323F0030343F0805343F0010313602A4E4FF4A170FCF761FD336802
:203C2000002B10DB002204230820CD21FFF79CFF244A136823F0405323F0030343F08053D0
:203C400043F00103136040F24310FCF749FD092300931D4B002102931C4B019103931C4B29
:203C60004FF0FF3004930A460A23FEF7C3FF0746D8B91848FFF706FC40F24510FCF730FD2E
:203C80002368154A43F010032360136840F2471043F0100313602B6843F010032B603368B5
:203CA00043F010033360FCF71BFD384607B0F0BD4001A8A54801A8A58001A8A58801A8A576
:203CC000A001A8A5A801A8A5B0900000C28E0000AF8E0000508F00006001A8A52DE9F04F51
:203CE00005460668DFF89891B38AD9F8000099B0C3181093337A002707935C4B4FF0010BD6
:203D000011911B693946CDF858B0179704200B929847D9F80030728A1198991833F80280DF
:203D2000B1F802A0F28A294698449A4413440893FEF784FE29460D900B98FEF77FFE0D9B61
:203D40000446BB4202DA4FF0FF306AE20028FADB474B5946186817AA83680097D3F818C0F2
:203D60003B46E0473A4659461D20FFF7DDFE6B7A0E932B7A09933F4B09985B699847109B2E
:203D80000C9003EBC4035A682B69D3180A93B37803FB04F20F920F99089A525C023258F8B8
:203DA0002270089A0A44527802325AF8222012920D9A5343089AD35CD9F80020023358F8C7
:203DC0002310F3882C4E134433F8240003EB84035B8814901593119BB34205D90B9BB34257
:203DE00094BF0226012600E0022617B109B1012E09D002264FF001094FF0040ADFF88480F6
:203E00004FF00A0B07E0DFF880804FF000094FF0050A4FF0060B194B03205B6A9B8A1344E2
:203E2000144AD968D2F810C016AB0022E04740462946FEF703FE013885D4109B082C03EBF5
:203E4000C000456805F55B4505F1BA0505DD079B0133DBB20793A31C06E0052C16DD079B5C
:203E60000133DBB20793631C109310E0C88D0000C493000094930000C7E40C002C8F000090
:203E8000D893000008220800883C0E0010940C999F4BA04A1198904288BF1946A9420C91ED
:203EA00007D29D4B0998D3F810C029460E9A16ABE0470120FCF740FC594601220023079832
:203EC000FCF764FE0220FCF737FC0F9B022002331393139A089BDFF888B29B5C1193FFF7AC
:203EE000C1FCDBF80020002A02DA5846FFF73FFA8A4A0BF5801B9345F3D1119B13F0FB0B7F
:203F000001D0022E03D186480221FFF7FFFBBBF1010F02D0012E00D01FB982480221FFF7A3
:203F2000F5FBBBF1020F03D17F485946FFF7EEFB119B032B03D17D480221FFF7E7FB00232A
:203F40000120009301934FF47A73314652460293039304904B46FFF7F1FB754E0320FCF7CF
:203F6000EBFB744A744BC6F80080D2F838C01B68724A9BB2117904200D22E0470420FCF737
:203F8000DBFB0D9BB146A34203DC38461299FFF78FFC0520FCF7D0FB0C9BAB420AD90A9B3F
:203FA00009989D4238BF1D465B4B29461E690E9A16ABB0470620FCF7BFFB614B1B681A68A7
:203FC000604B9A4200F02C81022C08DC524E032173680020984773680620032198470A9B64
:203FE000DFF834819D4206D21946D8F8106009980E9A16ABB0470720FCF79EFB0D9BA3429E
:2040000003DD38461299FFF753FC0820FCF794FB002207989DF840101346FCF7B7FD0920D9
:20402000FCF78AFB77B94FF47A73012002930393009701970490014605223B46FFF77EFB3B
:20404000052635E0089B139A9E5C06F0FB03012B0DD13D4F3A68002A09DB042040F21F1116
:204060000022FFF781FD3B6843F010033B60032E0DD1364F3B68002B09DB04230820CD21A3
:204080000022FFF771FD3B6843F010033B600F9A089B00201344149ADB780292159A00907F
:2040A000039201220492019004213246FFF746FB274F3846FFF7D6FB36F00403184A05D02E
:2040C00024490968002901DA176001E022491160012B144A05D01C490968002901DA1C492C
:2040E00000E01D49022B11600F4B05D01B4A1268002A01DA164A00E0174A032E1A600B4B27
:2041000030D0124A1268002A2CDA114A2BE000BFC0C62D0040420F0094930000000140A622
:204120002801A8A54801A8A56801A8A5A801A8A580000440C88D0000C8930000208C0000A7
:20414000AC890000054601154001A8A5A001A8A5010000102001A8A5030000306001A8A5ED
:20416000000100A6304A1A600A20FCF7E5FA0B9BC9F800300A9B9D4206D92C4B09981D6910
:204180000A990E9A16ABA847294B2A4A1B682A4D1179AE6B0D229BB20420B047274B0B9AF1
:2041A000D8F810709A4201BF254B264A5B6A126809BF9B8A00219B18D9694FF0000204BFED
:2041C00001F5C341283116AB0320B8470B20FCF7B3FA01211D200A46FFF7A6FC0C20FCF778
:2041E000ABFA022C114E07DD73680221002098477368062002219847104B0B9A9A420AD8EB
:20420000114B0121186818AA8468002342F8041D0093A469A0470D4A2B6904201178984776
:20422000002019B0BDE8F08F0300003094930000C8930000208C0000C88D0000C8E40C0003
:204240002C8F0000D8930000C4930000CC930000024A136843F0100313607047000140A664
:20426000094B05221A600122A3F500631A6003F5C013002203F5FF631A60044A136843F0F4
:2042800010031360704700BF0818A8A50001C0A50B4B05221A600122A3F500631A60A3F528
:2042A000FF2300220C3B1A60064A136843F01003136052F8203C43F0100342F8203C70473C
:2042C0000C18A8A54001A0A50D4A0123136002F17F4202F56802083204211160A2F1081267
:2042E000136002F5C00203230432136002F58012136002F58012136002F580121360704718
:204300000018C0A5024A136843F0100313607047000181A5064B01221A60A2F101125A6074
:20432000044A0523136053609360D360704700BF103FA8A5003FA8A5064B07221A60002207
:20434000A3F608031A60044A136843F010031360704700BFFC18A8A5000101A02DE9F041FD
:204360004FF48070FCF7BCF9B54B4FF41672B54D1A602B68B44AB54C1A40B54BB5491343DB
:2043800040F29E722B60B44B1A602368AE4A1A40B24B13432360C868FEF750FB071E01DAB4
:2043A00030BFFDE7AE4B1B68DA8A99189A7807FB0212598A967892F803E05278194449881B
:2043C000023203EB8203032E58581DD0052E01D0012E24D1C0F3052396215943A14ADFF850
:2043E000CCC21160DCF800209F49114041F0004200F007010A4342EA0322C0F3094342EA5D
:204400000343CCF800300AE0984B4FF4966298491A600B688C4A1A40964B13430B60964BD9
:2044200004221A6003F5B003032203F2747393491A6002230B6001F580110C310A6041F8E3
:204440000C3C01F580110A6041F80C3C01F580110A608B4A032E1360A2F52F02A2F10402D7
:204460001360884BC3F800E0A3F500631E600AD0052E01D0012E15D140F20110FCF730F990
:20448000DFF8288205E04FF48170FCF729F9DFF8E0814046FEF76BFFD8F8003043F010030A
:2044A000C8F8003040F20310FCF71AF96548FEF75EFF4FF48270FCF713F96448FEF757FF97
:2044C0002B684FF0010843F010032B60236843F0100323606C4BC3F80080A3F50063C3F834
:2044E0000080FFF7B5FE40F20510FCF7F9F8FFF7CFFEFFF7B5FEFFF70DFFFFF703FFFFF70C
:204500001BFF4FF48370FCF7EBF8604A4FF040531360A2F500021360A2F50012136002F567
:2045200000221360A2F51C121360A2F1B0621360574B40F20710C3F80080A3F51C13C3F8EE
:2045400000800023136502F1B46202F5E12210321360504B07221A60FCF7C2F84E4B1B6881
:204560009B68DB6998473846FFF732FA40F20910FCF7B6F84948FFF775F9062E00F2C98025
:20458000DFE806F0041D3F98041D3F0044484549FFF7BCF82368002B0ADA434A136823F08D
:2045A000405323F0030343F0805343F0010313603E4B1B68002B80F2AC803D4A16E02B68BA
:2045C000002B0ADA364A136823F0405323F0030343F0805343F00103136035483149FFF775
:2045E00095F82368002B80F294802F4A136823F0405323F0030343F0805343F0010313608F
:2046000087E02B68002B0ADA254A136823F0405323F0030343F0805343F001031360234BCA
:204620001B68002B0ADA224A136823F0405323F0030343F0805343F0010313601A4865E0EB
:204640000000A8A52001A8A5F8C0007C6001A8A5000448812C8F00000800A8A5000D9081C2
:20466000D89300000400A8A5F8C000FC1000A8A5A001A8A50008CD809C10A8A5041800A66F
:20468000041830A63418A8A50418A8A5000840A65008A8A51018A8A5C493000001000010B6
:2046A0002801A8A5030000306801A8A54001A8A54801A8A52B68002B0ADA394A136823F0C4
:2046C000405323F0030343F0805343F001031360344B1B68002B0ADA334A136823F04053CF
:2046E00023F0030343F0805343F0010313602368002B0ADA2D4A136823F0405323F00303A6
:2047000043F0805343F00103136029482949FEF7FDFF4FF48570FBF7E3FF03210A461C2059
:20472000FFF702FA244A0123136002F58012136002F58012136002F5801213601F4B204ABA
:2047400040F20B10136002F58012136002F58012136002F5801213601A4A136013621364E2
:204760001366C2F88030FBF7BBFF174B1B689B7A23B1DA0242EA8332134301E04DF603039F
:20478000124A4FF486701360FBF7AAFFFFF79CFD40F20D10FBF7A4FF0020BDE8F08100BF0E
:2047A0002801A8A54001A8A54801A8A56801A8A5A801A8A503000030500800A6FF00008003
:2047C000100100A63001A8A5A8890000000383A51A4B0A2270B51A80194B0B221A80194B69
:2047E0000C221A80184B0D221A80184B184A1D461360184A03F5006111600021988A1E7A23
:20480000154A00EBC6008B50541828582431B1F5B47FE06003F11803F0D1104B10491B684C
:20482000D2F8942013F4700318BF20230B6009680C4B00200B44D36070BD00BFE293000030
:20484000E0930000DE930000E493000000940000D8930000E89300002C8F0000100000A018
:20486000A88E0000000180A370B50C4D0C4C2B680E469A68282303FB0040136A00F108041C
:20488000408998472B6820F00C019B6860885B6A41EA86019847002070BD00BFC49300001C
:2048A000EC900000002070470020704710B5084B084A1B689968282358430B6A1418105AEF
:2048C0009847A378E2680340206900FB032010BDC4930000EC900000F8B51A4B00241B6851
:2048E0009B68DB699847082C1AD0174B20465B699847164A037A0668282101FB0321144BF6
:20490000327AB08A1B6800EBC2021A440D695268CB682A44013AD31AB3FBF5F30F193B75BA
:2049200001340A2CDFD10024E0B2FFF7BFFF074A282303FB04230134112C5860F4D1002022
:20494000F8BD00BFC4930000148F0000EC900000D8930000034B08461B6811469B685B6AC4
:20496000184700BFC493000008B5044B08461B689B681B6A9847C0B208BD00BFC493000031
:2049800008B5064B06491B689A68282303FB0010136A00899847C0F3811008BDC493000097
:2049A000EC900000024B282202FB0030704700BFEC900000044A0548136813F0807F044B5E
:2049C00008BF184610607047000382A6208F0801208F0800084B984205D8084B98428CBF6F
:2049E0001B20242000E01220054B1A68520648BF40F0400018607047A0BB0D0000350C00AD
:204A0000000392A64DF60303044A054988428CBF18461046034B1860704700BF042001004C
:204A200000350C00000382A32DE9F04F8A4685B09B46AC4F01230393282303FB0073D96820
:204A4000A0F103088A4528BF1B695FFA88F821BF03F1FF356D1A5544B5FBF3F534BF0025CF
:204A6000EDB2B8F1010F044600920CD8009BD7F84062F818D7F83C32721ED31A5344B3FB03
:204A8000F6F380F8443228226243BB1800985E681818B245057513D2002398183844007DCD
:204AA00058B185423FBFDFF83CE2282505FB04E52D693CBF05FB001A054601330D2BECD1DE
:204AC000B24500F04C82282303FB04735B6A1BB1B24501D250469847A4F10F03012B824EEE
:204AE00002D845F0C005E2E00E2C02D145F04005DDE0012C40F0CB807C497D4A08681368BD
:204B0000007A894628B97B498A459CBF23F080731360794B1B681B79002B00F0A380774B29
:204B20005A6892455DD9764A92452ED9DFF8D891D9F800204AB33268682192684FF48E707C
:204B4000526A0193904732685E21926840F24310526A904743F2D400019B5B68C3F5672359
:204B600003F56F63B3FBF0F0013000F015FA5F4A336812689B6811785B6A40F2391001F032
:204B8000FB0198470023C9F800305C4B5A685D4B9A4209D8013B9A4506D933684FF48E7082
:204BA0009B6888215B6A9847574B1B68002B40F0EC80564AAAF5C331A039914238BF11468C
:204BC00046F2A812A1F586216FF40E7C6144B1FBF2F1336840F243109B6841F040015B6A2B
:204BE00053E0444B9A4211D901339A4500F2CD80336888219B684FF48E705B6A9847336814
:204C000040F243109B685E215B6A98473C4B9A4500F2BB803C4A1368002B40F0B680336829
:204C200068219B684FF48E705B6A0192984743F2D400324B5B68A3F56723A3F56F63B3FBED
:204C4000F0F0013000F0A8F93368D9F800109B6809785B6A40F2391041F01C019847012321
:204C6000019A22E02A4B9A4540F28F80234A52689A4200F28A8040F239103368D9F80020FC
:204C80009B6811785B6A01F0E70198477DE0022C0DD116491F4A09681368497A002974D1BD
:204CA0001D498A4571D823F0400313606DE0B8F1010F33D80D4B1B685978D7F834329A45DC
:204CC00063D94CF250334909594301F5122101F5F861514538BF5146009A03AB0E20FFF7E1
:204CE000A3FE52E0EC900000C4930000A8890000000382A62F8C1100AC890000149100000C
:204D0000EF7E0E00308C1100BC93000090051000E0C81000000392A68F0510000B2C34D184
:204D2000914B1B6893F80390C9F3C103022B2CD18E4B5B689A4528D9336840F24B109B68A5
:204D40001B6A98474CF2503E336800F0C00298684FEA59130EFB03FEAAF543410EF51223CC
:204D6000503903F5F8638B4238BF0B4646F2A811A3F586236FF40E7E7344B3FBF1F1D0F812
:204D80002490114340F24B10C8474FF0280909FB04F937F8091007EB0903754845EA0121AA
:204DA00000220193FBF714FA326837F8090092682946526A9047019BDBF800205B686AB102
:204DC00043F2D40053458CBFCAEB0303C3EB0A03B3FBF0F0013000F0DFF80EE043F2D402F2
:204DE00053458BBFCAEB0300C3EB0A03B0FBF2F3B3FBF2F30133CBF80030012C41D15A4932
:204E00005C4A08681368007A28B95B48824584BF43F080731360594B1B681B790BB3584B44
:204E20005B689A4580F08C80564B1B68002B40F08780554AAAF5C331A039914238BF1146A2
:204E400046F2A8126FF40E70A1F586210144B1FBF2F1336840F243109B6841F040015B6A14
:204E60000DE04A4B9A456BD8454A52689A4267D940F2391033680A689B6811785B6A984771
:204E80005EE0022C0DD13849414A09681368497A002955D13F498A4552D943F04003136053
:204EA0004EE0B8F1010F17D82F4B1B685978D7F834329A4544D24CF250334909594301F57F
:204EC000122101F5F861514538BF5146009A03AB0E20FFF7A9FD33E00B2C31D1224B1B68DE
:204EE000DD78C5F3C103022B2AD1204B5B689A4526D2336840F24B109B686D091B6A9847AF
:204F00004CF250326A43336800F0C00EAAF54341986802F51223503903F5F8638B4238BFDC
:204F20000B4646F2A8116FF40E72A3F586231344B3FBF1F1426A4EEA010140F24B109047DA
:204F4000282303FB04735A6A22B15B689A4501D950469047282303FB0474C4F804A00020D0
:204F600005B0BDE8F08F00BFA8890000A4920000D9870000000382A62F8C1100AC890000A6
:204F800014910000BC93000090051000E0C81000000392A68F0510001A225043064B074A70
:204FA0000021196010601A68054A116001221A601A68D203FCD570470000014004000140A3
:204FC00008000140706C75675F7374006175746F63616C00645F696E00747800000000001B
:204FE0000F0F17171B1B1D1D1E1E27272B2B2D2D2E2E33333535363639393A3A3C3C474737
:205000004B4B4D4D4E4E53535555565659595A5A5C5C63636565666669696A6A6C6C7171EE
:205020007878F0F0727274741B1B1D1D0F0F17172B2B2D2D1E1E2727353536362E2E333346
:205040003C3C474739393A3A4E4E53534B4B4D4D59595A5A55555656656566665C5C636322
:205060006C6C717169696A6A7878F0F07272747400000000F000FC00E405F005C807CC07C8
:20508000D007D407D807DC07E007E407E807F007F407F807FC070008040808080C08100897
:2050A000C007C4072008240828082C083008340838083C0840085008540858085C08600886
:2050C000640868086C087008140818088008840888088C089008940898089C08A008B008BC
:2050E000B408B808BC08C008C408C808CC08D008E008E408E808EC08F008F408F808FC08B0
:2051000000091009140918091C092009240928092C093009940698067C008000840000005D
:205120006C00000000000000000483A6341200000000000000000000000000000000000090
:2051400058FC190000020300000093A634120000000000000000000000000000000000005E
:205160004811100000030200000883A334120000000000000000000000000000000000004D
:20518000D054080000040900000038A63412000000000000000000000000000000000000B2
:2051A000D05F1B0000000900E09A0000F89A0000713D0000413800003D380000616600002D
:2051C000000000005555EEEE11EE22DD44BB887711EE22DD44BB887700010001000100014D
:2051E0000001000100010001000000000000000000000000000000000000000000000000AB
:2052000000000000000000000000000000000000000000000000000000000000000000008E
:2052200000000000000000000000000000000000000000000000000000000000000000006E
:2052400000000000000000000000000000000000000000000000000000000000000000004E
:2052600000000000000000000000000000000000000000000000000000000000000000002E
:2052800000000000000000000000000000000000000000000000000000000000000000000E
:2052A0000000000000000000000000000000000000000000000000000000000000000000EE
:2052C0000000000000000000000000000000000000000000000000000000000000000000CE
:2052E0000000000000000000000000000000000000000000000000000000000000000000AE
:20530000000000000000000000010300000101100001010001000000000000000000010172
:205320000102010F000000000000000000000000000000000000000000000000000000005A
:2053400000000000000000000000000000000000000000000000000000000000000000004D
:2053600000000000000000000000000000000000000000000000000000000000000000002D
:2053800000000000000000000000000000000000000000000000000000000000000000000D
:2053A0000000000000000000000000000000000000000000000000000000000000000000ED
:2053C0000000000000000000000000000000000000000000000000000000000000000000CD
:2053E0000000000000000000000000000000000000000000000000000000000000000000AD
:2054000000000000000000000000000000000000000000000000000000000000000000008C
:205420000000000000020201000000010101000000000000050505050505050518183030AC
:205440000808101140101010080100000E0804040002020200030303000404040002020263
:20546000000303030004040401FF0000000101000000010100000000030300000401010007
:2054800000000000000000000000000000000000000000000000000000000000000000000C
:2054A0000000000000000000000000000000000000000000000000000000000000000000EC
:2054C0000000000000000000000000000000000000000000000000000000000000000000CC
:2054E0000000000000000000000000000000000000000000000000000000000000000000AC
:2055000000000000000000000000000000000000000000000000000000000000000000008B
:2055200000000000000000000000000000000000000005A6000015A6000025A6000035A65F
:205540000040A6A52D530000ED510000D55200000000000000000000154E0000594E0000D1
:20556000954E0000DD4D000000000000C94E0000214F000000000000000000000000000097
:2055800000000000AD480000555000008150000000000000E54B0000214900000000000006
:2055A0000000000000000000000000000000000000000000000003A6000013A6000023A6C0
:2055C000000033A60080A6A5E15C0000A15D0000895B0000295900003D5B0000B1580000E5
:2055E0002D5B00001D5B000029580000C1570000000000006D580000ED5800006D56000045
:20560000495E00001D570000AD5E0000295F00009D5F0000ED5900006D590000515700002C
:20562000CF660000D3660000D76600000567000001690000B9680000D56700000D67000018
:20564000F9660000FD660000016700005D6900003D670000DB660000E1660000010707011E
:205660000707030103000000801A060000000100AA1104000000020000710200000004003C
:20568000A08601000000070080A380A63C10A8A53C18A8A500000000000190A6FC8E000098
:2056A000001090A6030100002000000090A603010102010002000000000001070101070728
:2056C0000707841050100010BC1008114010A010B810F410101084180018C4180C194018DA
:2056E000A818C018FC181018081810181418101818180C1808180018041800000822080060
:205700000000010004110400000003008208020000000700396A0000000000000000000036
:20572000556B0000D1690000BD69000000000000B490000000000000000000000000000005
:20574000DD74000000000000000000005D7B0000000000000000000003010000000000001C
:2057600000000000000000000000000000000000A9730000000000009490000001020000E6
:205780000000000000000000000000000000000000000000156E0000000000008C8E00006C
:2057A0000203000000000000000000000000000000000000000000002D6D0000000000004A
:2057C000D0900000050400000000000000000000000000000000000000000000996B00005C
:2057E0000000000000000000030500000000000000000000000000000000000000000000A1
:20580000156D000000000000000000000406000000000000000000000000000000000000FC
:2058200000000000FD6C0000000000000000000004070000000000000000000000000000F4
:205840000000000000000000E56C00000000000000000000050800000000000000000000EA
:205860000000000000000000000000000000000000000000000000000B0900000000000014
:2058800000000000000000000000000000000000CD6C00003810A8A53818A8A5000000009D
:2058A000000180A6FC8E0000001080A603010000A8A5041800000000000000000000000094
:2058C00000000000000000000000000000010000000000008018A8A50000000000000000E2
:2058E000688E0000001080A3040100001A01FF000000000019011901E09304006A18000033
:2059000000000000000000000000000000000000000000001C01FF00000000001B011B0133
:20592000E09304006A18000000000000000000000000000000000000B58100001E01FF001A
:20594000000000001D011D01E09304006A1800000000000000000000000000000000000012
:20596000D58100002001FF00000000001F011F01E09304006A180000000000000000000078
:205980000000000000000000000000002201FF000000000021012101E09304006A180000A8
:2059A00000000000000000000000000000000000000000002401FF0000000000230123017B
:2059C000E09304006A18000000000000000000000000000000000000058200002701FF0020
:2059E0000000000026012601E09304006A1800000000000000000000000000000000000060
:205A0000000000002901FF000000000028012801E09304006A180000000000000000000012
:205A20000000000000000000000000002B01FF00000000002A012A01E09304006A180000EC
:205A400000000000000000000000000000000000000000002D01FF00000000002C012C01BF
:205A6000E09304006A18000000000000000000000000000000000000000000002F01FF00FE
:205A8000000000002E012E01804F1200D430000000000000000000000000000000000000C3
:205AA000000000003101FF000000000030013001E09304006A18000000000000000000005A
:205AC00000000000000000000000000034017F00000000003301330140AC2700D430000093
:205AE00000000000000000000000000000000000000000003F013F00000000003F013F01A7
:205B000060AE0A00A8610000000000000000000000000000000000000000000044013F00E0
:205B20000000000044014401E0930400A8610000000000000000000000000000000000005B
:205B40000000000048013F000000000048014801801A0600D4300000000000000000000087
:205B600000000000000000000000000049013F000000000049014901801A0600D430000064
:205B80000000000000000000000000000000000000000000D980000069800000A58000009E
:205BA000A980000029820000AD800000698100005581000081810000A581000001000000FB
:205BC0000000000000000000000000000000000000000000000000000000000000000000C5
:205BE0000000000000000000000000000000000000000000000000000000000000000000A5
:00000001FF
